{
  "_format": "hh-sol-artifact-1",
  "contractName": "ProofOfCreativity",
  "sourceName": "contracts/ProofOfCreativity.sol",
  "abi": [
    {
      "inputs": [],
      "stateMutability": "nonpayable",
      "type": "constructor"
    },
    {
      "anonymous": false,
      "inputs": [
        {
          "indexed": true,
          "internalType": "address",
          "name": "owner",
          "type": "address"
        },
        {
          "indexed": true,
          "internalType": "bytes32",
          "name": "commitment",
          "type": "bytes32"
        },
        {
          "indexed": false,
          "internalType": "uint256",
          "name": "timestamp",
          "type": "uint256"
        }
      ],
      "name": "CommitmentStored",
      "type": "event"
    },
    {
      "anonymous": false,
      "inputs": [
        {
          "indexed": true,
          "internalType": "address",
          "name": "owner",
          "type": "address"
        },
        {
          "indexed": true,
          "internalType": "bytes32",
          "name": "proofOrCommitment",
          "type": "bytes32"
        },
        {
          "indexed": false,
          "internalType": "uint256",
          "name": "timestamp",
          "type": "uint256"
        }
      ],
      "name": "ProofRevoked",
      "type": "event"
    },
    {
      "anonymous": false,
      "inputs": [
        {
          "indexed": true,
          "internalType": "address",
          "name": "owner",
          "type": "address"
        },
        {
          "indexed": true,
          "internalType": "bytes32",
          "name": "proof",
          "type": "bytes32"
        },
        {
          "indexed": false,
          "internalType": "string",
          "name": "cid",
          "type": "string"
        },
        {
          "indexed": false,
          "internalType": "uint256",
          "name": "timestamp",
          "type": "uint256"
        },
        {
          "indexed": true,
          "internalType": "bytes32",
          "name": "meta",
          "type": "bytes32"
        }
      ],
      "name": "ProofStored",
      "type": "event"
    },
    {
      "anonymous": false,
      "inputs": [
        {
          "indexed": true,
          "internalType": "address",
          "name": "addr",
          "type": "address"
        }
      ],
      "name": "VerifierSet",
      "type": "event"
    },
    {
      "inputs": [],
      "name": "admin",
      "outputs": [
        {
          "internalType": "address",
          "name": "",
          "type": "address"
        }
      ],
      "stateMutability": "view",
      "type": "function"
    },
    {
      "inputs": [
        {
          "internalType": "bytes32",
          "name": "",
          "type": "bytes32"
        }
      ],
      "name": "commitmentOwner",
      "outputs": [
        {
          "internalType": "address",
          "name": "",
          "type": "address"
        }
      ],
      "stateMutability": "view",
      "type": "function"
    },
    {
      "inputs": [
        {
          "internalType": "bytes32",
          "name": "commitment",
          "type": "bytes32"
        },
        {
          "internalType": "address",
          "name": "user",
          "type": "address"
        }
      ],
      "name": "isCommitmentOwner",
      "outputs": [
        {
          "internalType": "bool",
          "name": "",
          "type": "bool"
        }
      ],
      "stateMutability": "view",
      "type": "function"
    },
    {
      "inputs": [
        {
          "internalType": "bytes32",
          "name": "proofOrCommitment",
          "type": "bytes32"
        }
      ],
      "name": "revoke",
      "outputs": [],
      "stateMutability": "nonpayable",
      "type": "function"
    },
    {
      "inputs": [
        {
          "internalType": "bytes32",
          "name": "",
          "type": "bytes32"
        }
      ],
      "name": "revoked",
      "outputs": [
        {
          "internalType": "bool",
          "name": "",
          "type": "bool"
        }
      ],
      "stateMutability": "view",
      "type": "function"
    },
    {
      "inputs": [
        {
          "internalType": "address",
          "name": "newAdmin",
          "type": "address"
        }
      ],
      "name": "setAdmin",
      "outputs": [],
      "stateMutability": "nonpayable",
      "type": "function"
    },
    {
      "inputs": [
        {
          "internalType": "address",
          "name": "v",
          "type": "address"
        }
      ],
      "name": "setVerifier",
      "outputs": [],
      "stateMutability": "nonpayable",
      "type": "function"
    },
    {
      "inputs": [
        {
          "internalType": "bytes32",
          "name": "commitment",
          "type": "bytes32"
        }
      ],
      "name": "storeCommitment",
      "outputs": [],
      "stateMutability": "nonpayable",
      "type": "function"
    },
    {
      "inputs": [
        {
          "internalType": "string",
          "name": "cid",
          "type": "string"
        }
      ],
      "name": "storeProof",
      "outputs": [
        {
          "internalType": "bytes32",
          "name": "proofHash",
          "type": "bytes32"
        }
      ],
      "stateMutability": "nonpayable",
      "type": "function"
    },
    {
      "inputs": [],
      "name": "verifier",
      "outputs": [
        {
          "internalType": "address",
          "name": "",
          "type": "address"
        }
      ],
      "stateMutability": "view",
      "type": "function"
    }
  ],
  "bytecode": "0x6080604052348015600f57600080fd5b50600280546001600160a01b03191633179055610766806100316000396000f3fe608060405234801561001057600080fd5b506004361061009e5760003560e01c80635fc5a9f3116100665780635fc5a9f31461014f578063704b6c021461017e578063b75c7dc614610191578063dc97d5a6146101a4578063f851a440146101cd57600080fd5b80631fb82d26146100a35780632b7ac3f3146100c9578063328a93e8146100f4578063377d2778146101275780635437988d1461013c575b600080fd5b6100b66100b13660046105d0565b6101e0565b6040519081526020015b60405180910390f35b6003546100dc906001600160a01b031681565b6040516001600160a01b0390911681526020016100c0565b610117610102366004610644565b60016020526000908152604090205460ff1681565b60405190151581526020016100c0565b61013a610135366004610644565b610261565b005b61013a61014a366004610679565b610357565b61011761015d36600461069b565b600091825260208290526040909120546001600160a01b0391821691161490565b61013a61018c366004610679565b6103e7565b61013a61019f366004610644565b610494565b6100dc6101b2366004610644565b6000602081905290815260409020546001600160a01b031681565b6002546100dc906001600160a01b031681565b60405160009042906101fc9085908590339085906020016106c7565b60408051601f1981840301815290829052805160209091012092506000908190849033907f53dd408a172dc31885b6fc1e962cdea9dd43fea6f3c378698cf2738ca816729690610251908a908a9089906106f7565b60405180910390a4505092915050565b806102a55760405162461bcd60e51b815260206004820152600f60248201526e16995c9bc818dbdb5b5a5d1b595b9d608a1b60448201526064015b60405180910390fd5b6000818152602081905260409020546001600160a01b0316156102fe5760405162461bcd60e51b8152602060048201526011602482015270436f6d6d69746d656e742065786973747360781b604482015260640161029c565b6000818152602081815260409182902080546001600160a01b0319163390811790915591514281528392917f77b02d7207be9fa135afa510ac7e906a79303145c46c855820ff034e555f9ffe910160405180910390a350565b6002546001600160a01b0316331461039d5760405162461bcd60e51b81526020600482015260096024820152682737ba1030b236b4b760b91b604482015260640161029c565b600380546001600160a01b0319166001600160a01b0383169081179091556040517f480b37e3d134e44cb444c9703493c7db564c707cb8a18cecea165f340431da1f90600090a250565b6002546001600160a01b0316331461042d5760405162461bcd60e51b81526020600482015260096024820152682737ba1030b236b4b760b91b604482015260640161029c565b6001600160a01b0381166104725760405162461bcd60e51b815260206004820152600c60248201526b7a65726f206164647265737360a01b604482015260640161029c565b600280546001600160a01b0319166001600160a01b0392909216919091179055565b6000818152602081905260409020546001600160a01b0316801561051657336001600160a01b03821614806104d357506002546001600160a01b031633145b6105115760405162461bcd60e51b815260206004820152600f60248201526e2737ba1037bbb732b917b0b236b4b760891b604482015260640161029c565b61057a565b6002546001600160a01b0316331461057a5760405162461bcd60e51b815260206004820152602160248201527f4f6e6c792061646d696e20746f207265766f6b6520706c61696e2070726f6f666044820152607360f81b606482015260840161029c565b600082815260016020818152604092839020805460ff19169092179091559051428152839133917f1ea942c72f5cf3d160f8de3f8412990045ae144a902751facdd56e9c8471013a910160405180910390a35050565b600080602083850312156105e357600080fd5b823567ffffffffffffffff8111156105fa57600080fd5b8301601f8101851361060b57600080fd5b803567ffffffffffffffff81111561062257600080fd5b85602082840101111561063457600080fd5b6020919091019590945092505050565b60006020828403121561065657600080fd5b5035919050565b80356001600160a01b038116811461067457600080fd5b919050565b60006020828403121561068b57600080fd5b6106948261065d565b9392505050565b600080604083850312156106ae57600080fd5b823591506106be6020840161065d565b90509250929050565b8385823760609290921b6bffffffffffffffffffffffff1916919092019081526014810191909152603401919050565b604081528260408201528284606083013760006060848301015260006060601f19601f860116830101905082602083015294935050505056fea26469706673582212208c07bcf0cbd609d12bf01b06804cbefc17f7c0a9da21bda717c2dab22b21b51464736f6c634300081d0033",
  "linkReferences": {},
  "deployedLinkReferences": {}
}