{
  "_format": "hh-sol-artifact-1",
  "contractName": "ProofNFT",
  "sourceName": "contracts/ProofNFT.sol",
  "abi": [
    {
      "inputs": [
        {
          "internalType": "string",
          "name": "name_",
          "type": "string"
        },
        {
          "internalType": "string",
          "name": "symbol_",
          "type": "string"
        }
      ],
      "stateMutability": "nonpayable",
      "type": "constructor"
    },
    {
      "inputs": [
        {
          "internalType": "address",
          "name": "sender",
          "type": "address"
        },
        {
          "internalType": "uint256",
          "name": "tokenId",
          "type": "uint256"
        },
        {
          "internalType": "address",
          "name": "owner",
          "type": "address"
        }
      ],
      "name": "ERC721IncorrectOwner",
      "type": "error"
    },
    {
      "inputs": [
        {
          "internalType": "address",
          "name": "operator",
          "type": "address"
        },
        {
          "internalType": "uint256",
          "name": "tokenId",
          "type": "uint256"
        }
      ],
      "name": "ERC721InsufficientApproval",
      "type": "error"
    },
    {
      "inputs": [
        {
          "internalType": "address",
          "name": "approver",
          "type": "address"
        }
      ],
      "name": "ERC721InvalidApprover",
      "type": "error"
    },
    {
      "inputs": [
        {
          "internalType": "address",
          "name": "operator",
          "type": "address"
        }
      ],
      "name": "ERC721InvalidOperator",
      "type": "error"
    },
    {
      "inputs": [
        {
          "internalType": "address",
          "name": "owner",
          "type": "address"
        }
      ],
      "name": "ERC721InvalidOwner",
      "type": "error"
    },
    {
      "inputs": [
        {
          "internalType": "address",
          "name": "receiver",
          "type": "address"
        }
      ],
      "name": "ERC721InvalidReceiver",
      "type": "error"
    },
    {
      "inputs": [
        {
          "internalType": "address",
          "name": "sender",
          "type": "address"
        }
      ],
      "name": "ERC721InvalidSender",
      "type": "error"
    },
    {
      "inputs": [
        {
          "internalType": "uint256",
          "name": "tokenId",
          "type": "uint256"
        }
      ],
      "name": "ERC721NonexistentToken",
      "type": "error"
    },
    {
      "inputs": [
        {
          "internalType": "address",
          "name": "owner",
          "type": "address"
        }
      ],
      "name": "OwnableInvalidOwner",
      "type": "error"
    },
    {
      "inputs": [
        {
          "internalType": "address",
          "name": "account",
          "type": "address"
        }
      ],
      "name": "OwnableUnauthorizedAccount",
      "type": "error"
    },
    {
      "anonymous": false,
      "inputs": [
        {
          "indexed": true,
          "internalType": "address",
          "name": "owner",
          "type": "address"
        },
        {
          "indexed": true,
          "internalType": "address",
          "name": "approved",
          "type": "address"
        },
        {
          "indexed": true,
          "internalType": "uint256",
          "name": "tokenId",
          "type": "uint256"
        }
      ],
      "name": "Approval",
      "type": "event"
    },
    {
      "anonymous": false,
      "inputs": [
        {
          "indexed": true,
          "internalType": "address",
          "name": "owner",
          "type": "address"
        },
        {
          "indexed": true,
          "internalType": "address",
          "name": "operator",
          "type": "address"
        },
        {
          "indexed": false,
          "internalType": "bool",
          "name": "approved",
          "type": "bool"
        }
      ],
      "name": "ApprovalForAll",
      "type": "event"
    },
    {
      "anonymous": false,
      "inputs": [
        {
          "indexed": false,
          "internalType": "uint256",
          "name": "_fromTokenId",
          "type": "uint256"
        },
        {
          "indexed": false,
          "internalType": "uint256",
          "name": "_toTokenId",
          "type": "uint256"
        }
      ],
      "name": "BatchMetadataUpdate",
      "type": "event"
    },
    {
      "anonymous": false,
      "inputs": [
        {
          "indexed": true,
          "internalType": "address",
          "name": "operator",
          "type": "address"
        },
        {
          "indexed": true,
          "internalType": "uint256",
          "name": "tokenId",
          "type": "uint256"
        }
      ],
      "name": "Burned",
      "type": "event"
    },
    {
      "anonymous": false,
      "inputs": [
        {
          "indexed": false,
          "internalType": "uint256",
          "name": "_tokenId",
          "type": "uint256"
        }
      ],
      "name": "MetadataUpdate",
      "type": "event"
    },
    {
      "anonymous": false,
      "inputs": [
        {
          "indexed": true,
          "internalType": "address",
          "name": "to",
          "type": "address"
        },
        {
          "indexed": true,
          "internalType": "uint256",
          "name": "tokenId",
          "type": "uint256"
        },
        {
          "indexed": false,
          "internalType": "string",
          "name": "tokenUri",
          "type": "string"
        }
      ],
      "name": "Minted",
      "type": "event"
    },
    {
      "anonymous": false,
      "inputs": [
        {
          "indexed": true,
          "internalType": "address",
          "name": "previousOwner",
          "type": "address"
        },
        {
          "indexed": true,
          "internalType": "address",
          "name": "newOwner",
          "type": "address"
        }
      ],
      "name": "OwnershipTransferred",
      "type": "event"
    },
    {
      "anonymous": false,
      "inputs": [
        {
          "indexed": true,
          "internalType": "address",
          "name": "from",
          "type": "address"
        },
        {
          "indexed": true,
          "internalType": "address",
          "name": "to",
          "type": "address"
        },
        {
          "indexed": true,
          "internalType": "uint256",
          "name": "tokenId",
          "type": "uint256"
        }
      ],
      "name": "Transfer",
      "type": "event"
    },
    {
      "inputs": [
        {
          "internalType": "address",
          "name": "to",
          "type": "address"
        },
        {
          "internalType": "uint256",
          "name": "tokenId",
          "type": "uint256"
        }
      ],
      "name": "approve",
      "outputs": [],
      "stateMutability": "nonpayable",
      "type": "function"
    },
    {
      "inputs": [
        {
          "internalType": "address",
          "name": "owner",
          "type": "address"
        }
      ],
      "name": "balanceOf",
      "outputs": [
        {
          "internalType": "uint256",
          "name": "",
          "type": "uint256"
        }
      ],
      "stateMutability": "view",
      "type": "function"
    },
    {
      "inputs": [
        {
          "internalType": "uint256",
          "name": "tokenId",
          "type": "uint256"
        }
      ],
      "name": "burnIfAllowed",
      "outputs": [],
      "stateMutability": "nonpayable",
      "type": "function"
    },
    {
      "inputs": [
        {
          "internalType": "uint256",
          "name": "tokenId",
          "type": "uint256"
        }
      ],
      "name": "getApproved",
      "outputs": [
        {
          "internalType": "address",
          "name": "",
          "type": "address"
        }
      ],
      "stateMutability": "view",
      "type": "function"
    },
    {
      "inputs": [
        {
          "internalType": "address",
          "name": "owner",
          "type": "address"
        },
        {
          "internalType": "address",
          "name": "operator",
          "type": "address"
        }
      ],
      "name": "isApprovedForAll",
      "outputs": [
        {
          "internalType": "bool",
          "name": "",
          "type": "bool"
        }
      ],
      "stateMutability": "view",
      "type": "function"
    },
    {
      "inputs": [
        {
          "internalType": "address",
          "name": "to",
          "type": "address"
        },
        {
          "internalType": "string",
          "name": "uri",
          "type": "string"
        }
      ],
      "name": "mint",
      "outputs": [
        {
          "internalType": "uint256",
          "name": "",
          "type": "uint256"
        }
      ],
      "stateMutability": "nonpayable",
      "type": "function"
    },
    {
      "inputs": [],
      "name": "name",
      "outputs": [
        {
          "internalType": "string",
          "name": "",
          "type": "string"
        }
      ],
      "stateMutability": "view",
      "type": "function"
    },
    {
      "inputs": [],
      "name": "owner",
      "outputs": [
        {
          "internalType": "address",
          "name": "",
          "type": "address"
        }
      ],
      "stateMutability": "view",
      "type": "function"
    },
    {
      "inputs": [
        {
          "internalType": "uint256",
          "name": "tokenId",
          "type": "uint256"
        }
      ],
      "name": "ownerOf",
      "outputs": [
        {
          "internalType": "address",
          "name": "",
          "type": "address"
        }
      ],
      "stateMutability": "view",
      "type": "function"
    },
    {
      "inputs": [],
      "name": "renounceOwnership",
      "outputs": [],
      "stateMutability": "nonpayable",
      "type": "function"
    },
    {
      "inputs": [
        {
          "internalType": "address",
          "name": "from",
          "type": "address"
        },
        {
          "internalType": "address",
          "name": "to",
          "type": "address"
        },
        {
          "internalType": "uint256",
          "name": "tokenId",
          "type": "uint256"
        }
      ],
      "name": "safeTransferFrom",
      "outputs": [],
      "stateMutability": "nonpayable",
      "type": "function"
    },
    {
      "inputs": [
        {
          "internalType": "address",
          "name": "from",
          "type": "address"
        },
        {
          "internalType": "address",
          "name": "to",
          "type": "address"
        },
        {
          "internalType": "uint256",
          "name": "tokenId",
          "type": "uint256"
        },
        {
          "internalType": "bytes",
          "name": "data",
          "type": "bytes"
        }
      ],
      "name": "safeTransferFrom",
      "outputs": [],
      "stateMutability": "nonpayable",
      "type": "function"
    },
    {
      "inputs": [
        {
          "internalType": "address",
          "name": "operator",
          "type": "address"
        },
        {
          "internalType": "bool",
          "name": "approved",
          "type": "bool"
        }
      ],
      "name": "setApprovalForAll",
      "outputs": [],
      "stateMutability": "nonpayable",
      "type": "function"
    },
    {
      "inputs": [
        {
          "internalType": "bytes4",
          "name": "interfaceId",
          "type": "bytes4"
        }
      ],
      "name": "supportsInterface",
      "outputs": [
        {
          "internalType": "bool",
          "name": "",
          "type": "bool"
        }
      ],
      "stateMutability": "view",
      "type": "function"
    },
    {
      "inputs": [],
      "name": "symbol",
      "outputs": [
        {
          "internalType": "string",
          "name": "",
          "type": "string"
        }
      ],
      "stateMutability": "view",
      "type": "function"
    },
    {
      "inputs": [
        {
          "internalType": "uint256",
          "name": "tokenId",
          "type": "uint256"
        }
      ],
      "name": "tokenURI",
      "outputs": [
        {
          "internalType": "string",
          "name": "",
          "type": "string"
        }
      ],
      "stateMutability": "view",
      "type": "function"
    },
    {
      "inputs": [
        {
          "internalType": "address",
          "name": "from",
          "type": "address"
        },
        {
          "internalType": "address",
          "name": "to",
          "type": "address"
        },
        {
          "internalType": "uint256",
          "name": "tokenId",
          "type": "uint256"
        }
      ],
      "name": "transferFrom",
      "outputs": [],
      "stateMutability": "nonpayable",
      "type": "function"
    },
    {
      "inputs": [
        {
          "internalType": "address",
          "name": "newOwner",
          "type": "address"
        }
      ],
      "name": "transferOwnership",
      "outputs": [],
      "stateMutability": "nonpayable",
      "type": "function"
    }
  ],
  "bytecode": "0x6080604052600160085534801561001557600080fd5b506040516119c53803806119c58339810160408190526100349161019d565b3382826000610043838261028f565b506001610050828261028f565b5050506001600160a01b03811661008157604051631e4fbdf760e01b81526000600482015260240160405180910390fd5b61008a81610092565b50505061034d565b600780546001600160a01b038381166001600160a01b0319831681179093556040519116919082907f8be0079c531659141344cd1fd0a4f28419497f9722a3daafe3b4186f6b6457e090600090a35050565b634e487b7160e01b600052604160045260246000fd5b600082601f83011261010b57600080fd5b81516001600160401b03811115610124576101246100e4565b604051601f8201601f19908116603f011681016001600160401b0381118282101715610152576101526100e4565b60405281815283820160200185101561016a57600080fd5b60005b828110156101895760208186018101518383018201520161016d565b506000918101602001919091529392505050565b600080604083850312156101b057600080fd5b82516001600160401b038111156101c657600080fd5b6101d2858286016100fa565b602085015190935090506001600160401b038111156101f057600080fd5b6101fc858286016100fa565b9150509250929050565b600181811c9082168061021a57607f821691505b60208210810361023a57634e487b7160e01b600052602260045260246000fd5b50919050565b601f82111561028a57806000526020600020601f840160051c810160208510156102675750805b601f840160051c820191505b818110156102875760008155600101610273565b50505b505050565b81516001600160401b038111156102a8576102a86100e4565b6102bc816102b68454610206565b84610240565b6020601f8211600181146102f057600083156102d85750848201515b600019600385901b1c1916600184901b178455610287565b600084815260208120601f198516915b828110156103205787850151825560209485019460019092019101610300565b508482101561033e5786840151600019600387901b60f8161c191681555b50505050600190811b01905550565b6116698061035c6000396000f3fe608060405234801561001057600080fd5b50600436106101165760003560e01c8063715018a6116100a2578063b88d4fde11610071578063b88d4fde14610239578063c87b56dd1461024c578063d0def5211461025f578063e985e9c514610272578063f2fde38b1461028557600080fd5b8063715018a6146102055780638da5cb5b1461020d57806395d89b411461021e578063a22cb4651461022657600080fd5b806323b872dd116100e957806323b872dd1461019857806342842e0e146101ab5780636352211e146101be5780637071373b146101d157806370a08231146101e457600080fd5b806301ffc9a71461011b57806306fdde0314610143578063081812fc14610158578063095ea7b314610183575b600080fd5b61012e6101293660046110ef565b610298565b60405190151581526020015b60405180910390f35b61014b6102c3565b60405161013a919061115c565b61016b61016636600461116f565b610355565b6040516001600160a01b03909116815260200161013a565b6101966101913660046111a4565b61037e565b005b6101966101a63660046111ce565b61038d565b6101966101b93660046111ce565b61041d565b61016b6101cc36600461116f565b61043d565b6101966101df36600461116f565b610448565b6101f76101f236600461120b565b610570565b60405190815260200161013a565b6101966105b8565b6007546001600160a01b031661016b565b61014b6105cc565b610196610234366004611226565b6105db565b610196610247366004611278565b6105e6565b61014b61025a36600461116f565b6105fe565b6101f761026d36600461135c565b61070f565b61012e6102803660046113e1565b6107c6565b61019661029336600461120b565b6107f4565b60006001600160e01b03198216632483248360e11b14806102bd57506102bd82610832565b92915050565b6060600080546102d290611414565b80601f01602080910402602001604051908101604052809291908181526020018280546102fe90611414565b801561034b5780601f106103205761010080835404028352916020019161034b565b820191906000526020600020905b81548152906001019060200180831161032e57829003601f168201915b5050505050905090565b600061036082610882565b506000828152600460205260409020546001600160a01b03166102bd565b6103898282336108bb565b5050565b6001600160a01b0382166103bc57604051633250574960e11b8152600060048201526024015b60405180910390fd5b60006103c98383336108c8565b9050836001600160a01b0316816001600160a01b031614610417576040516364283d7b60e01b81526001600160a01b03808616600483015260248201849052821660448201526064016103b3565b50505050565b610438838383604051806020016040528060008152506105e6565b505050565b60006102bd82610882565b6000818152600260205260409020546001600160a01b0316806104a45760405162461bcd60e51b8152602060048201526014602482015273151bdad95b88191bd95cc81b9bdd08195e1a5cdd60621b60448201526064016103b3565b3360006001600160a01b0383168214806104d75750816001600160a01b03166104cc85610355565b6001600160a01b0316145b806104e757506104e783836107c6565b90508061052b5760405162461bcd60e51b81526020600482015260126024820152711b9bdd081bdddb995c8bd85c1c1c9bdd995960721b60448201526064016103b3565b610534846109c1565b60405184906001600160a01b038416907f696de425f79f4a40bc6d2122ca50507f0efbeabbff86a84871b7196ab8ea8df790600090a350505050565b60006001600160a01b03821661059c576040516322718ad960e21b8152600060048201526024016103b3565b506001600160a01b031660009081526003602052604090205490565b6105c06109fc565b6105ca6000610a29565b565b6060600180546102d290611414565b610389338383610a7b565b6105f184848461038d565b6104173385858585610b1a565b606061060982610882565b506000828152600660205260408120805461062390611414565b80601f016020809104026020016040519081016040528092919081815260200182805461064f90611414565b801561069c5780601f106106715761010080835404028352916020019161069c565b820191906000526020600020905b81548152906001019060200180831161067f57829003601f168201915b5050505050905060006106ba60408051602081019091526000815290565b905080516000036106cc575092915050565b8151156106fe5780826040516020016106e692919061144e565b60405160208183030381529060405292505050919050565b61070784610c45565b949350505050565b60006107196109fc565b600880546000918261072a8361147d565b91905055905061073a8582610cba565b61077a8185858080601f016020809104026020016040519081016040528093929190818152602001838380828437600092019190915250610cd492505050565b80856001600160a01b03167fe7cd4ce7f2a465edc730269a1305e8a48bad821e8fb7e152ec413829c01a53c486866040516107b69291906114a4565b60405180910390a3949350505050565b6001600160a01b03918216600090815260056020908152604080832093909416825291909152205460ff1690565b6107fc6109fc565b6001600160a01b03811661082657604051631e4fbdf760e01b8152600060048201526024016103b3565b61082f81610a29565b50565b60006001600160e01b031982166380ac58cd60e01b148061086357506001600160e01b03198216635b5e139f60e01b145b806102bd57506301ffc9a760e01b6001600160e01b03198316146102bd565b6000818152600260205260408120546001600160a01b0316806102bd57604051637e27328960e01b8152600481018490526024016103b3565b6104388383836001610d24565b6000828152600260205260408120546001600160a01b03908116908316156108f5576108f5818486610e2a565b6001600160a01b0381161561093357610912600085600080610d24565b6001600160a01b038116600090815260036020526040902080546000190190555b6001600160a01b03851615610962576001600160a01b0385166000908152600360205260409020805460010190555b60008481526002602052604080822080546001600160a01b0319166001600160a01b0389811691821790925591518793918516917fddf252ad1be2c89b69c2b068fc378daa952ba7f163c4a11628f55a4df523b3ef91a4949350505050565b60006109d060008360006108c8565b90506001600160a01b03811661038957604051637e27328960e01b8152600481018390526024016103b3565b6007546001600160a01b031633146105ca5760405163118cdaa760e01b81523360048201526024016103b3565b600780546001600160a01b038381166001600160a01b0319831681179093556040519116919082907f8be0079c531659141344cd1fd0a4f28419497f9722a3daafe3b4186f6b6457e090600090a35050565b6001600160a01b038216610aad57604051630b61174360e31b81526001600160a01b03831660048201526024016103b3565b6001600160a01b03838116600081815260056020908152604080832094871680845294825291829020805460ff191686151590811790915591519182527f17307eab39ab6107e8899845ad3d59bd9653f200f220920489ca2b5937696c31910160405180910390a3505050565b6001600160a01b0383163b15610c3e57604051630a85bd0160e11b81526001600160a01b0384169063150b7a0290610b5c9088908890879087906004016114d3565b6020604051808303816000875af1925050508015610b97575060408051601f3d908101601f19168201909252610b9491810190611510565b60015b610c00573d808015610bc5576040519150601f19603f3d011682016040523d82523d6000602084013e610bca565b606091505b508051600003610bf857604051633250574960e11b81526001600160a01b03851660048201526024016103b3565b805160208201fd5b6001600160e01b03198116630a85bd0160e11b14610c3c57604051633250574960e11b81526001600160a01b03851660048201526024016103b3565b505b5050505050565b6060610c5082610882565b506000610c6860408051602081019091526000815290565b90506000815111610c885760405180602001604052806000815250610cb3565b80610c9284610e8e565b604051602001610ca392919061144e565b6040516020818303038152906040525b9392505050565b610389828260405180602001604052806000815250610f21565b6000828152600660205260409020610cec8282611574565b506040518281527ff8e1a15aba9398e019f0b49df1a4fde98ee17ae345cb5f6b5e2c27f5033e8ce79060200160405180910390a15050565b8080610d3857506001600160a01b03821615155b15610dfa576000610d4884610882565b90506001600160a01b03831615801590610d745750826001600160a01b0316816001600160a01b031614155b8015610d875750610d8581846107c6565b155b15610db05760405163a9fbf51f60e01b81526001600160a01b03841660048201526024016103b3565b8115610df85783856001600160a01b0316826001600160a01b03167f8c5be1e5ebec7d5bd14f71427d1e84f3dd0314c0f7b2291e5b200ac8c7c3b92560405160405180910390a45b505b5050600090815260046020526040902080546001600160a01b0319166001600160a01b0392909216919091179055565b610e35838383610f39565b610438576001600160a01b038316610e6357604051637e27328960e01b8152600481018290526024016103b3565b60405163177e802f60e01b81526001600160a01b0383166004820152602481018290526044016103b3565b60606000610e9b83610f9c565b600101905060008167ffffffffffffffff811115610ebb57610ebb611262565b6040519080825280601f01601f191660200182016040528015610ee5576020820181803683370190505b5090508181016020015b600019016f181899199a1a9b1b9c1cb0b131b232b360811b600a86061a8153600a8504945084610eef57509392505050565b610f2b8383611074565b610438336000858585610b1a565b60006001600160a01b038316158015906107075750826001600160a01b0316846001600160a01b03161480610f735750610f7384846107c6565b806107075750506000908152600460205260409020546001600160a01b03908116911614919050565b60008072184f03e93ff9f4daa797ed6e38ed64bf6a1f0160401b8310610fdb5772184f03e93ff9f4daa797ed6e38ed64bf6a1f0160401b830492506040015b6d04ee2d6d415b85acef81000000008310611007576d04ee2d6d415b85acef8100000000830492506020015b662386f26fc10000831061102557662386f26fc10000830492506010015b6305f5e100831061103d576305f5e100830492506008015b612710831061105157612710830492506004015b60648310611063576064830492506002015b600a83106102bd5760010192915050565b6001600160a01b03821661109e57604051633250574960e11b8152600060048201526024016103b3565b60006110ac838360006108c8565b90506001600160a01b03811615610438576040516339e3563760e11b8152600060048201526024016103b3565b6001600160e01b03198116811461082f57600080fd5b60006020828403121561110157600080fd5b8135610cb3816110d9565b60005b8381101561112757818101518382015260200161110f565b50506000910152565b6000815180845261114881602086016020860161110c565b601f01601f19169290920160200192915050565b602081526000610cb36020830184611130565b60006020828403121561118157600080fd5b5035919050565b80356001600160a01b038116811461119f57600080fd5b919050565b600080604083850312156111b757600080fd5b6111c083611188565b946020939093013593505050565b6000806000606084860312156111e357600080fd5b6111ec84611188565b92506111fa60208501611188565b929592945050506040919091013590565b60006020828403121561121d57600080fd5b610cb382611188565b6000806040838503121561123957600080fd5b61124283611188565b91506020830135801515811461125757600080fd5b809150509250929050565b634e487b7160e01b600052604160045260246000fd5b6000806000806080858703121561128e57600080fd5b61129785611188565b93506112a560208601611188565b925060408501359150606085013567ffffffffffffffff8111156112c857600080fd5b8501601f810187136112d957600080fd5b803567ffffffffffffffff8111156112f3576112f3611262565b604051601f8201601f19908116603f0116810167ffffffffffffffff8111828210171561132257611322611262565b60405281815282820160200189101561133a57600080fd5b8160208401602083013760006020838301015280935050505092959194509250565b60008060006040848603121561137157600080fd5b61137a84611188565b9250602084013567ffffffffffffffff81111561139657600080fd5b8401601f810186136113a757600080fd5b803567ffffffffffffffff8111156113be57600080fd5b8660208284010111156113d057600080fd5b939660209190910195509293505050565b600080604083850312156113f457600080fd5b6113fd83611188565b915061140b60208401611188565b90509250929050565b600181811c9082168061142857607f821691505b60208210810361144857634e487b7160e01b600052602260045260246000fd5b50919050565b6000835161146081846020880161110c565b83519083019061147481836020880161110c565b01949350505050565b60006001820161149d57634e487b7160e01b600052601160045260246000fd5b5060010190565b60208152816020820152818360408301376000818301604090810191909152601f909201601f19160101919050565b6001600160a01b038581168252841660208201526040810183905260806060820181905260009061150690830184611130565b9695505050505050565b60006020828403121561152257600080fd5b8151610cb3816110d9565b601f82111561043857806000526020600020601f840160051c810160208510156115545750805b601f840160051c820191505b81811015610c3e5760008155600101611560565b815167ffffffffffffffff81111561158e5761158e611262565b6115a28161159c8454611414565b8461152d565b6020601f8211600181146115d657600083156115be5750848201515b600019600385901b1c1916600184901b178455610c3e565b600084815260208120601f198516915b8281101561160657878501518255602094850194600190920191016115e6565b50848210156116245786840151600019600387901b60f8161c191681555b50505050600190811b0190555056fea2646970667358221220a6e30250b40b6a7c252e9913bfafaccdcaef210244a267bb95d51a3af40a7f1e64736f6c634300081d0033",
  "linkReferences": {},
  "deployedLinkReferences": {}
}