{
  "_format": "hh-sol-artifact-1",
  "contractName": "Groth16Verifier",
  "sourceName": "contracts/Verifier.sol",
  "abi": [
    {
      "inputs": [
        {
          "internalType": "uint256[2]",
          "name": "_pA",
          "type": "uint256[2]"
        },
        {
          "internalType": "uint256[2][2]",
          "name": "_pB",
          "type": "uint256[2][2]"
        },
        {
          "internalType": "uint256[2]",
          "name": "_pC",
          "type": "uint256[2]"
        },
        {
          "internalType": "uint256[1]",
          "name": "_pubSignals",
          "type": "uint256[1]"
        }
      ],
      "name": "verifyProof",
      "outputs": [
        {
          "internalType": "bool",
          "name": "",
          "type": "bool"
        }
      ],
      "stateMutability": "view",
      "type": "function"
    }
  ],
  "bytecode": "0x6080604052348015600f57600080fd5b5061055f8061001f6000396000f3fe608060405234801561001057600080fd5b506004361061002b5760003560e01c806343753b4d14610030575b600080fd5b61004361003e3660046104c2565b610057565b604051901515815260200160405180910390f35b600061047a565b7f30644e72e131a029b85045b68181585d2833e84879b9709143e1f593f0000001811061008f576000805260206000f35b50565b600060405183815284602082015285604082015260408160608360076107d05a03fa9150816100c5576000805260206000f35b825160408201526020830151606082015260408360808360066107d05a03fa915050806100f6576000805260206000f35b5050505050565b7f20503b9c8c569c3a5b0f51f2bc64c6e100c54ac5e77d06e7d0fc53d84b78755785527f19264cfcb2f9f9e4469889cd923e69207465a044ec575704c86ddc635cdbf33960208601526000608086018661019a87357f12196167b52d5867b5f35e69f9e84940ddb9560f7d9e95969007ee5177f3edce7f2d4e21bee1364af66a37ad6d6a8288ab897b2e19737b6cd43534029c8a976ff484610092565b50823581527f30644e72e131a029b85045b68181585d97816a916871ca8d3c208c16d87cfd4760208401357f30644e72e131a029b85045b68181585d97816a916871ca8d3c208c16d87cfd4703066020820152833560408201526020840135606082015260408401356080820152606084013560a08201527f06ef6c7b522911eed772e06d0d5fd761481eec54b393dffeb2867e21d99a623160c08201527f0604e6c6680f4280e16de4128e4bee612ce103338057fcaf96789775c650044c60e08201527f11c0441da2e5f564170aa3877afd2cede6af51388ce883a7022252c7644049586101008201527f250be09968d1c9f2419f575b3b4b1d37f33a2dfad22145e722e492531395e29b6101208201527f069e5eae5a365d548cf6b7a6675dfe59689d1d6252bb340d2be8e8f0d9fecff16101408201527f18db8919771f7fe8e3ace46f9068074dde46cb575f28669b9a77a83dd60f8bc4610160820152600087015161018082015260206000018701516101a08201527f198e9393920d483a7260bfb731fb5d25f1aa493335a9e71297e485b7aef312c26101c08201527f1800deef121f1e76426a00665e5c4479674322d4f75edadd46debd5cd992f6ed6101e08201527f090689d0585ff075ec9e99ad690c3395bc4b313370b38ef355acdadcd122975b6102008201527f12c85ea5db8c6deb4aab71808dcb408fe3d1e7690c43d37b4ce6cc0166fa7daa610220820152843561024082015260208501356102608201527f2c62d2dea14b5fb48454696fd5f1b7fd7b87369d72e16ba054185961ca6a95f16102808201527f2b13326d3da2358dd36a981d7bd6713b21553190b23300aed7c953d31406eb8e6102a08201527f16b7044dccadc3c659daf53014268a78ccbbfcf6573e251c14179220ff20cc9f6102c08201527f160488028d8126e2deba49d01afbbcade07ab16c39ca6263f63e704ec96ed4116102e08201526020816103008360086107d05a03fa9051169695505050505050565b6040516103808101604052610492600084013561005e565b61049f818486888a6100fd565b90508060005260206000f35b80604081018310156104bc57600080fd5b92915050565b60008060008061012085870312156104d957600080fd5b6104e386866104ab565b935060c08501868111156104f657600080fd5b60408601935061050687826104ab565b925050856101208601111561051a57600080fd5b5091949093509091610100019056fea264697066735822122072ab9ed7853c484e623fe0d8a2f3c8f6b448b3240a3714a974d37422140f177864736f6c634300081d0033",
  "linkReferences": {},
  "deployedLinkReferences": {}
}