{
  "_format": "hh-sol-artifact-1",
  "contractName": "Counter",
  "sourceName": "contracts/Counter.sol",
  "abi": [
    {
      "anonymous": false,
      "inputs": [
        {
          "indexed": false,
          "internalType": "uint256",
          "name": "by",
          "type": "uint256"
        }
      ],
      "name": "Increment",
      "type": "event"
    },
    {
      "inputs": [],
      "name": "inc",
      "outputs": [],
      "stateMutability": "nonpayable",
      "type": "function"
    },
    {
      "inputs": [
        {
          "internalType": "uint256",
          "name": "by",
          "type": "uint256"
        }
      ],
      "name": "incBy",
      "outputs": [],
      "stateMutability": "nonpayable",
      "type": "function"
    },
    {
      "inputs": [],
      "name": "x",
      "outputs": [
        {
          "internalType": "uint256",
          "name": "",
          "type": "uint256"
        }
      ],
      "stateMutability": "view",
      "type": "function"
    }
  ],
  "bytecode": "0x6080604052348015600f57600080fd5b5061020b8061001f6000396000f3fe608060405234801561001057600080fd5b50600436106100415760003560e01c80630c55699c14610046578063371303c01461006157806370119d061461006b575b600080fd5b61004f60005481565b60405190815260200160405180910390f35b61006961007e565b005b610069610079366004610174565b6100c8565b60008054908061008d836101a3565b9091555050604051600181527f51af157c2eee40f68107a47a49c32fbbeb0a3c9e5cd37aa56e88e6be92368a819060200160405180910390a1565b600081116101285760405162461bcd60e51b815260206004820152602360248201527f696e6342793a20696e6372656d656e742073686f756c6420626520706f73697460448201526269766560e81b606482015260840160405180910390fd5b8060008082825461013991906101bc565b90915550506040518181527f51af157c2eee40f68107a47a49c32fbbeb0a3c9e5cd37aa56e88e6be92368a819060200160405180910390a150565b60006020828403121561018657600080fd5b5035919050565b634e487b7160e01b600052601160045260246000fd5b6000600182016101b5576101b561018d565b5060010190565b808201808211156101cf576101cf61018d565b9291505056fea2646970667358221220ccb3140a9493355ee8cd7475f632d2b6c1ef2a7f5175dcac6afb37dc8fcd2ef164736f6c634300081d0033",
  "linkReferences": {},
  "deployedLinkReferences": {}
}